{
  "address": "0x50bAb9E8cF434b9e20A06eFB2Df0a4E51CC90388",
  "abi": [
    {
      "inputs": [
        {
          "internalType": "uint256",
          "name": "_amountNeeded",
          "type": "uint256"
        },
        {
          "internalType": "uint256",
          "name": "_minAmount",
          "type": "uint256"
        },
        {
          "internalType": "address",
          "name": "_priceFeed",
          "type": "address"
        },
        {
          "internalType": "address",
          "name": "_owner",
          "type": "address"
        }
      ],
      "stateMutability": "nonpayable",
      "type": "constructor"
    },
    {
      "inputs": [],
      "name": "SeedValueAlreadyWithdrawn",
      "type": "error"
    },
    {
      "inputs": [],
      "name": "balanceLessThanMinAmount",
      "type": "error"
    },
    {
      "inputs": [],
      "name": "distributionFailed",
      "type": "error"
    },
    {
      "inputs": [],
      "name": "notOwner",
      "type": "error"
    },
    {
      "inputs": [],
      "name": "notenoughAmount",
      "type": "error"
    },
    {
      "inputs": [],
      "name": "transactionFailed",
      "type": "error"
    },
    {
      "anonymous": false,
      "inputs": [
        {
          "indexed": true,
          "internalType": "address",
          "name": "donater",
          "type": "address"
        },
        {
          "indexed": true,
          "internalType": "uint256",
          "name": "amount",
          "type": "uint256"
        }
      ],
      "name": "Donated",
      "type": "event"
    },
    {
      "anonymous": false,
      "inputs": [
        {
          "indexed": false,
          "internalType": "address",
          "name": "sender",
          "type": "address"
        },
        {
          "indexed": false,
          "internalType": "uint256",
          "name": "amount",
          "type": "uint256"
        }
      ],
      "name": "ExternalTransaction",
      "type": "event"
    },
    {
      "anonymous": false,
      "inputs": [
        {
          "indexed": true,
          "internalType": "address",
          "name": "withdrawer",
          "type": "address"
        },
        {
          "indexed": true,
          "internalType": "uint256",
          "name": "amount",
          "type": "uint256"
        },
        {
          "indexed": true,
          "internalType": "uint256",
          "name": "time",
          "type": "uint256"
        }
      ],
      "name": "SeedAmountWithdrawn",
      "type": "event"
    },
    {
      "inputs": [
        {
          "internalType": "uint256",
          "name": "newMinAmount",
          "type": "uint256"
        }
      ],
      "name": "adjustMinAmount",
      "outputs": [],
      "stateMutability": "nonpayable",
      "type": "function"
    },
    {
      "inputs": [],
      "name": "distributeReturns",
      "outputs": [],
      "stateMutability": "nonpayable",
      "type": "function"
    },
    {
      "inputs": [],
      "name": "donate",
      "outputs": [],
      "stateMutability": "payable",
      "type": "function"
    },
    {
      "inputs": [
        {
          "internalType": "uint256",
          "name": "_amount",
          "type": "uint256"
        }
      ],
      "name": "getPercentage",
      "outputs": [
        {
          "internalType": "uint256",
          "name": "percentageShare",
          "type": "uint256"
        }
      ],
      "stateMutability": "view",
      "type": "function"
    },
    {
      "inputs": [],
      "name": "getRemainderBalance",
      "outputs": [
        {
          "internalType": "uint256",
          "name": "remainder",
          "type": "uint256"
        }
      ],
      "stateMutability": "view",
      "type": "function"
    },
    {
      "inputs": [],
      "name": "redeemShares",
      "outputs": [],
      "stateMutability": "nonpayable",
      "type": "function"
    },
    {
      "inputs": [
        {
          "internalType": "address",
          "name": "_account",
          "type": "address"
        }
      ],
      "name": "returnShare",
      "outputs": [
        {
          "internalType": "uint256",
          "name": "share",
          "type": "uint256"
        }
      ],
      "stateMutability": "view",
      "type": "function"
    },
    {
      "inputs": [],
      "name": "revertDonations",
      "outputs": [],
      "stateMutability": "nonpayable",
      "type": "function"
    },
    {
      "inputs": [],
      "name": "withdraw",
      "outputs": [],
      "stateMutability": "nonpayable",
      "type": "function"
    },
    {
      "stateMutability": "payable",
      "type": "receive"
    }
  ],
  "transactionHash": "0xb78e2047d929e3ba8ff40ce9c29e7c8d9a0bf212ebc8cb760bb402069ddb3a06",
  "args": [
    "50000",
    "100",
    "0xD4a33860578De61DBAbDc8BFdb98FD742fA7028e",
    "0xf39Fd6e51aad88F6F4ce6aB8827279cffFb92266"
  ],
  "numDeployments": 1,
  "solcInputHash": "31cde3353634c40d848fd875e45c3c0d",
  "bytecode": "0x60806040523480156200001157600080fd5b506040516200343d3803806200343d83398181016040528101906200003791906200024b565b80600260006101000a81548173ffffffffffffffffffffffffffffffffffffffff021916908373ffffffffffffffffffffffffffffffffffffffff160217905550670de0b6b3a7640000846200008e9190620002ec565b600081905550670de0b6b3a764000083620000aa9190620002ec565b60018190555081600460016101000a81548173ffffffffffffffffffffffffffffffffffffffff021916908373ffffffffffffffffffffffffffffffffffffffff160217905550670de0b6b3a764000084620001079190620002ec565b604051620001159062000198565b62000121919062000348565b604051809103906000f0801580156200013e573d6000803e3d6000fd5b50600560006101000a81548173ffffffffffffffffffffffffffffffffffffffff021916908373ffffffffffffffffffffffffffffffffffffffff160217905550678ac7230489e800006003819055505050505062000365565b61197c8062001ac183390190565b600080fd5b6000819050919050565b620001c081620001ab565b8114620001cc57600080fd5b50565b600081519050620001e081620001b5565b92915050565b600073ffffffffffffffffffffffffffffffffffffffff82169050919050565b60006200021382620001e6565b9050919050565b620002258162000206565b81146200023157600080fd5b50565b60008151905062000245816200021a565b92915050565b60008060008060808587031215620002685762000267620001a6565b5b60006200027887828801620001cf565b94505060206200028b87828801620001cf565b93505060406200029e8782880162000234565b9250506060620002b18782880162000234565b91505092959194509250565b7f4e487b7100000000000000000000000000000000000000000000000000000000600052601160045260246000fd5b6000620002f982620001ab565b91506200030683620001ab565b92508282026200031681620001ab565b9150828204841483151762000330576200032f620002bd565b5b5092915050565b6200034281620001ab565b82525050565b60006020820190506200035f600083018462000337565b92915050565b61174c80620003756000396000f3fe6080604052600436106100895760003560e01c806372650820116100595780637265082014610176578063951d48d71461018d578063b460481d146101a4578063e161c3bf146101bb578063ed88c68e146101f8576100c9565b806205c9c6146100ce5780633ccfd60b146100f7578063493dbc4a1461010e5780636f0a7bc51461014b576100c9565b366100c9577fa947958e076310575a7309021c323bbde6ae428df9382cc590009656c8ca25bb33346040516100bf929190611100565b60405180910390a1005b600080fd5b3480156100da57600080fd5b506100f560048036038101906100f0919061115a565b610202565b005b34801561010357600080fd5b5061010c610293565b005b34801561011a57600080fd5b50610135600480360381019061013091906111b3565b6104d3565b60405161014291906111e0565b60405180910390f35b34801561015757600080fd5b50610160610578565b60405161016d91906111e0565b60405180910390f35b34801561018257600080fd5b5061018b61059a565b005b34801561019957600080fd5b506101a26107f7565b005b3480156101b057600080fd5b506101b961098b565b005b3480156101c757600080fd5b506101e260048036038101906101dd919061115a565b610b03565b6040516101ef91906111e0565b60405180910390f35b610200610b3b565b005b600260009054906101000a900473ffffffffffffffffffffffffffffffffffffffff1673ffffffffffffffffffffffffffffffffffffffff163373ffffffffffffffffffffffffffffffffffffffff1614610289576040517f251c9d6300000000000000000000000000000000000000000000000000000000815260040160405180910390fd5b8060018190555050565b600260009054906101000a900473ffffffffffffffffffffffffffffffffffffffff1673ffffffffffffffffffffffffffffffffffffffff163373ffffffffffffffffffffffffffffffffffffffff161461031a576040517f251c9d6300000000000000000000000000000000000000000000000000000000815260040160405180910390fd5b600460009054906101000a900460ff1615610361576040517fedd8c8bb00000000000000000000000000000000000000000000000000000000815260040160405180910390fd5b600061036c47610d9f565b90506000548110156103aa576040517f84ca280f00000000000000000000000000000000000000000000000000000000815260040160405180910390fd5b6000600260009054906101000a900473ffffffffffffffffffffffffffffffffffffffff1673ffffffffffffffffffffffffffffffffffffffff16476040516103f29061122c565b60006040518083038185875af1925050503d806000811461042f576040519150601f19603f3d011682016040523d82523d6000602084013e610434565b606091505b505090508061046f576040517fdccf81a900000000000000000000000000000000000000000000000000000000815260040160405180910390fd5b6001600460006101000a81548160ff02191690831515021790555042473373ffffffffffffffffffffffffffffffffffffffff167f79d596d2a0b8ee335aa1eacb975a89bd0563c47b8855ccc91feabf9df7a240f660405160405180910390a45050565b6000600560009054906101000a900473ffffffffffffffffffffffffffffffffffffffff1673ffffffffffffffffffffffffffffffffffffffff166370a08231836040518263ffffffff1660e01b81526004016105309190611241565b602060405180830381865afa15801561054d573d6000803e3d6000fd5b505050506040513d601f19601f820116820180604052508101906105719190611271565b9050919050565b60008061058447610d9f565b90508060005461059491906112cd565b91505090565b600260009054906101000a900473ffffffffffffffffffffffffffffffffffffffff1673ffffffffffffffffffffffffffffffffffffffff163373ffffffffffffffffffffffffffffffffffffffff1614610621576040517f251c9d6300000000000000000000000000000000000000000000000000000000815260040160405180910390fd5b600060078054806020026020016040519081016040528092919081815260200182805480156106a557602002820191906000526020600020905b8160009054906101000a900473ffffffffffffffffffffffffffffffffffffffff1673ffffffffffffffffffffffffffffffffffffffff168152602001906001019080831161065b575b5050505050905060005b81518110156107f35760003a600660008585815181106106d2576106d1611301565b5b602002602001015173ffffffffffffffffffffffffffffffffffffffff1673ffffffffffffffffffffffffffffffffffffffff1681526020019081526020016000205461071f91906112cd565b9050600083838151811061073657610735611301565b5b602002602001015173ffffffffffffffffffffffffffffffffffffffff16826040516107619061122c565b60006040518083038185875af1925050503d806000811461079e576040519150601f19603f3d011682016040523d82523d6000602084013e6107a3565b606091505b50509050806107de576040517f3864f58200000000000000000000000000000000000000000000000000000000815260040160405180910390fd5b505080806107eb90611330565b9150506106af565b5050565b6000600780548060200260200160405190810160405280929190818152602001828054801561087b57602002820191906000526020600020905b8160009054906101000a900473ffffffffffffffffffffffffffffffffffffffff1673ffffffffffffffffffffffffffffffffffffffff1681526020019060010190808311610831575b5050505050905060005b81518110156109875760006108b38383815181106108a6576108a5611301565b5b6020026020010151610e25565b905060008383815181106108ca576108c9611301565b5b602002602001015173ffffffffffffffffffffffffffffffffffffffff16826040516108f59061122c565b60006040518083038185875af1925050503d8060008114610932576040519150601f19603f3d011682016040523d82523d6000602084013e610937565b606091505b5050905080610972576040517f3864f58200000000000000000000000000000000000000000000000000000000815260040160405180910390fd5b5050808061097f90611330565b915050610885565b5050565b600260009054906101000a900473ffffffffffffffffffffffffffffffffffffffff1673ffffffffffffffffffffffffffffffffffffffff163373ffffffffffffffffffffffffffffffffffffffff1614610a12576040517f251c9d6300000000000000000000000000000000000000000000000000000000815260040160405180910390fd5b60004790506000610a22336104d3565b9050600068056bc75e2d631000008383610a3c9190611378565b610a4691906113e9565b905060003373ffffffffffffffffffffffffffffffffffffffff1682604051610a6e9061122c565b60006040518083038185875af1925050503d8060008114610aab576040519150601f19603f3d011682016040523d82523d6000602084013e610ab0565b606091505b5050905080610af4576040517f08c379a0000000000000000000000000000000000000000000000000000000008152600401610aeb90611477565b60405180910390fd5b610afd82610e9f565b50505050565b600080610b0f83610d9f565b905060005468056bc75e2d6310000082610b299190611378565b610b3391906113e9565b915050919050565b600460009054906101000a900460ff1615610b82576040517fedd8c8bb00000000000000000000000000000000000000000000000000000000815260040160405180910390fd5b600154610b8e34610d9f565b1015610bc6576040517f84ca280f00000000000000000000000000000000000000000000000000000000815260040160405180910390fd5b600154610bd1610578565b1015610c09576040517fbadd8f2500000000000000000000000000000000000000000000000000000000815260040160405180910390fd5b34600660003373ffffffffffffffffffffffffffffffffffffffff1673ffffffffffffffffffffffffffffffffffffffff168152602001908152602001600020819055506007339080600181540180825580915050600190039060005260206000200160009091909190916101000a81548173ffffffffffffffffffffffffffffffffffffffff021916908373ffffffffffffffffffffffffffffffffffffffff160217905550600560009054906101000a900473ffffffffffffffffffffffffffffffffffffffff1673ffffffffffffffffffffffffffffffffffffffff1663a9059cbb33610cf834610b03565b6040518363ffffffff1660e01b8152600401610d15929190611100565b6020604051808303816000875af1158015610d34573d6000803e3d6000fd5b505050506040513d601f19601f82011682018060405250810190610d5891906114cf565b50343373ffffffffffffffffffffffffffffffffffffffff167f2a01595cddf097c90216094025db714da3f4e5bd8877b56ba86a24ecead8e54360405160405180910390a3565b600080610daa610f38565b9050670de0b6b3a76400008382610dc19190611378565b610dcb91906113e9565b9150610e1f6040518060400160405280601d81526020017f55534420616d6f756e74206f662065746820646f6e61746564203d3d20000000815250670de0b6b3a764000084610e1a91906113e9565b610fe9565b50919050565b600080479050600354811015610e67576040517f84ca280f00000000000000000000000000000000000000000000000000000000815260040160405180910390fd5b6000610e72846104d3565b905068056bc75e2d6310000060035482610e8c9190611378565b610e9691906113e9565b92505050919050565b610f3581604051602401610eb391906111e0565b6040516020818303038152906040527ff82c50f1000000000000000000000000000000000000000000000000000000007bffffffffffffffffffffffffffffffffffffffffffffffffffffffff19166020820180517bffffffffffffffffffffffffffffffffffffffffffffffffffffffff8381831617835250505050611085565b50565b600080600460019054906101000a900473ffffffffffffffffffffffffffffffffffffffff1673ffffffffffffffffffffffffffffffffffffffff1663feaf968c6040518163ffffffff1660e01b815260040160a060405180830381865afa158015610fa8573d6000803e3d6000fd5b505050506040513d601f19601f82011682018060405250810190610fcc9190611574565b5050509150506402540be40081610fe391906115ef565b91505090565b6110818282604051602401610fff9291906116e6565b6040516020818303038152906040527fb60e72cc000000000000000000000000000000000000000000000000000000007bffffffffffffffffffffffffffffffffffffffffffffffffffffffff19166020820180517bffffffffffffffffffffffffffffffffffffffffffffffffffffffff8381831617835250505050611085565b5050565b60006a636f6e736f6c652e6c6f679050600080835160208501845afa505050565b600073ffffffffffffffffffffffffffffffffffffffff82169050919050565b60006110d1826110a6565b9050919050565b6110e1816110c6565b82525050565b6000819050919050565b6110fa816110e7565b82525050565b600060408201905061111560008301856110d8565b61112260208301846110f1565b9392505050565b600080fd5b611137816110e7565b811461114257600080fd5b50565b6000813590506111548161112e565b92915050565b6000602082840312156111705761116f611129565b5b600061117e84828501611145565b91505092915050565b611190816110c6565b811461119b57600080fd5b50565b6000813590506111ad81611187565b92915050565b6000602082840312156111c9576111c8611129565b5b60006111d78482850161119e565b91505092915050565b60006020820190506111f560008301846110f1565b92915050565b600081905092915050565b50565b60006112166000836111fb565b915061122182611206565b600082019050919050565b600061123782611209565b9150819050919050565b600060208201905061125660008301846110d8565b92915050565b60008151905061126b8161112e565b92915050565b60006020828403121561128757611286611129565b5b60006112958482850161125c565b91505092915050565b7f4e487b7100000000000000000000000000000000000000000000000000000000600052601160045260246000fd5b60006112d8826110e7565b91506112e3836110e7565b92508282039050818111156112fb576112fa61129e565b5b92915050565b7f4e487b7100000000000000000000000000000000000000000000000000000000600052603260045260246000fd5b600061133b826110e7565b91507fffffffffffffffffffffffffffffffffffffffffffffffffffffffffffffffff820361136d5761136c61129e565b5b600182019050919050565b6000611383826110e7565b915061138e836110e7565b925082820261139c816110e7565b915082820484148315176113b3576113b261129e565b5b5092915050565b7f4e487b7100000000000000000000000000000000000000000000000000000000600052601260045260246000fd5b60006113f4826110e7565b91506113ff836110e7565b92508261140f5761140e6113ba565b5b828204905092915050565b600082825260208201905092915050565b7f496d706f737369626c65205472616e7366657200000000000000000000000000600082015250565b600061146160138361141a565b915061146c8261142b565b602082019050919050565b6000602082019050818103600083015261149081611454565b9050919050565b60008115159050919050565b6114ac81611497565b81146114b757600080fd5b50565b6000815190506114c9816114a3565b92915050565b6000602082840312156114e5576114e4611129565b5b60006114f3848285016114ba565b91505092915050565b600069ffffffffffffffffffff82169050919050565b61151b816114fc565b811461152657600080fd5b50565b60008151905061153881611512565b92915050565b6000819050919050565b6115518161153e565b811461155c57600080fd5b50565b60008151905061156e81611548565b92915050565b600080600080600060a086880312156115905761158f611129565b5b600061159e88828901611529565b95505060206115af8882890161155f565b94505060406115c08882890161125c565b93505060606115d18882890161125c565b92505060806115e288828901611529565b9150509295509295909350565b60006115fa8261153e565b91506116058361153e565b92508282026116138161153e565b91507f8000000000000000000000000000000000000000000000000000000000000000841460008412161561164b5761164a61129e565b5b82820584148315176116605761165f61129e565b5b5092915050565b600081519050919050565b60005b83811015611690578082015181840152602081019050611675565b60008484015250505050565b6000601f19601f8301169050919050565b60006116b882611667565b6116c2818561141a565b93506116d2818560208601611672565b6116db8161169c565b840191505092915050565b6000604082019050818103600083015261170081856116ad565b905061170f60208301846110f1565b939250505056fea264697066735822122030b52c4d61fa448cede83fc0d3a51c8c51cfd0afcf6a6c50180da8877618e3de64736f6c6343000811003360806040523480156200001157600080fd5b506040516200197c3803806200197c833981810160405281019062000037919062000299565b6040518060400160405280601281526020017f4c69717569646974792050726f766964657200000000000000000000000000008152506040518060400160405280600281526020017f4c500000000000000000000000000000000000000000000000000000000000008152508160039081620000b491906200053b565b508060049081620000c691906200053b565b505050620000db3382620000e260201b60201c565b506200073d565b600073ffffffffffffffffffffffffffffffffffffffff168273ffffffffffffffffffffffffffffffffffffffff160362000154576040517f08c379a00000000000000000000000000000000000000000000000000000000081526004016200014b9062000683565b60405180910390fd5b62000168600083836200024f60201b60201c565b80600260008282546200017c9190620006d4565b92505081905550806000808473ffffffffffffffffffffffffffffffffffffffff1673ffffffffffffffffffffffffffffffffffffffff168152602001908152602001600020600082825401925050819055508173ffffffffffffffffffffffffffffffffffffffff16600073ffffffffffffffffffffffffffffffffffffffff167fddf252ad1be2c89b69c2b068fc378daa952ba7f163c4a11628f55a4df523b3ef836040516200022f919062000720565b60405180910390a36200024b600083836200025460201b60201c565b5050565b505050565b505050565b600080fd5b6000819050919050565b62000273816200025e565b81146200027f57600080fd5b50565b600081519050620002938162000268565b92915050565b600060208284031215620002b257620002b162000259565b5b6000620002c28482850162000282565b91505092915050565b600081519050919050565b7f4e487b7100000000000000000000000000000000000000000000000000000000600052604160045260246000fd5b7f4e487b7100000000000000000000000000000000000000000000000000000000600052602260045260246000fd5b600060028204905060018216806200034d57607f821691505b60208210810362000363576200036262000305565b5b50919050565b60008190508160005260206000209050919050565b60006020601f8301049050919050565b600082821b905092915050565b600060088302620003cd7fffffffffffffffffffffffffffffffffffffffffffffffffffffffffffffffff826200038e565b620003d986836200038e565b95508019841693508086168417925050509392505050565b6000819050919050565b60006200041c6200041662000410846200025e565b620003f1565b6200025e565b9050919050565b6000819050919050565b6200043883620003fb565b62000450620004478262000423565b8484546200039b565b825550505050565b600090565b6200046762000458565b620004748184846200042d565b505050565b5b818110156200049c57620004906000826200045d565b6001810190506200047a565b5050565b601f821115620004eb57620004b58162000369565b620004c0846200037e565b81016020851015620004d0578190505b620004e8620004df856200037e565b83018262000479565b50505b505050565b600082821c905092915050565b60006200051060001984600802620004f0565b1980831691505092915050565b60006200052b8383620004fd565b9150826002028217905092915050565b6200054682620002cb565b67ffffffffffffffff811115620005625762000561620002d6565b5b6200056e825462000334565b6200057b828285620004a0565b600060209050601f831160018114620005b357600084156200059e578287015190505b620005aa85826200051d565b8655506200061a565b601f198416620005c38662000369565b60005b82811015620005ed57848901518255600182019150602085019450602081019050620005c6565b868310156200060d578489015162000609601f891682620004fd565b8355505b6001600288020188555050505b505050505050565b600082825260208201905092915050565b7f45524332303a206d696e7420746f20746865207a65726f206164647265737300600082015250565b60006200066b601f8362000622565b9150620006788262000633565b602082019050919050565b600060208201905081810360008301526200069e816200065c565b9050919050565b7f4e487b7100000000000000000000000000000000000000000000000000000000600052601160045260246000fd5b6000620006e1826200025e565b9150620006ee836200025e565b9250828201905080821115620007095762000708620006a5565b5b92915050565b6200071a816200025e565b82525050565b60006020820190506200073760008301846200070f565b92915050565b61122f806200074d6000396000f3fe608060405234801561001057600080fd5b50600436106100a95760003560e01c80633950935111610071578063395093511461016857806370a082311461019857806395d89b41146101c8578063a457c2d7146101e6578063a9059cbb14610216578063dd62ed3e14610246576100a9565b806306fdde03146100ae578063095ea7b3146100cc57806318160ddd146100fc57806323b872dd1461011a578063313ce5671461014a575b600080fd5b6100b6610276565b6040516100c39190610b0c565b60405180910390f35b6100e660048036038101906100e19190610bc7565b610308565b6040516100f39190610c22565b60405180910390f35b61010461032b565b6040516101119190610c4c565b60405180910390f35b610134600480360381019061012f9190610c67565b610335565b6040516101419190610c22565b60405180910390f35b610152610364565b60405161015f9190610cd6565b60405180910390f35b610182600480360381019061017d9190610bc7565b61036d565b60405161018f9190610c22565b60405180910390f35b6101b260048036038101906101ad9190610cf1565b6103a4565b6040516101bf9190610c4c565b60405180910390f35b6101d06103ec565b6040516101dd9190610b0c565b60405180910390f35b61020060048036038101906101fb9190610bc7565b61047e565b60405161020d9190610c22565b60405180910390f35b610230600480360381019061022b9190610bc7565b6104f5565b60405161023d9190610c22565b60405180910390f35b610260600480360381019061025b9190610d1e565b610518565b60405161026d9190610c4c565b60405180910390f35b60606003805461028590610d8d565b80601f01602080910402602001604051908101604052809291908181526020018280546102b190610d8d565b80156102fe5780601f106102d3576101008083540402835291602001916102fe565b820191906000526020600020905b8154815290600101906020018083116102e157829003601f168201915b5050505050905090565b60008061031361059f565b90506103208185856105a7565b600191505092915050565b6000600254905090565b60008061034061059f565b905061034d858285610770565b6103588585856107fc565b60019150509392505050565b60006012905090565b60008061037861059f565b905061039981858561038a8589610518565b6103949190610ded565b6105a7565b600191505092915050565b60008060008373ffffffffffffffffffffffffffffffffffffffff1673ffffffffffffffffffffffffffffffffffffffff168152602001908152602001600020549050919050565b6060600480546103fb90610d8d565b80601f016020809104026020016040519081016040528092919081815260200182805461042790610d8d565b80156104745780601f1061044957610100808354040283529160200191610474565b820191906000526020600020905b81548152906001019060200180831161045757829003601f168201915b5050505050905090565b60008061048961059f565b905060006104978286610518565b9050838110156104dc576040517f08c379a00000000000000000000000000000000000000000000000000000000081526004016104d390610e93565b60405180910390fd5b6104e982868684036105a7565b60019250505092915050565b60008061050061059f565b905061050d8185856107fc565b600191505092915050565b6000600160008473ffffffffffffffffffffffffffffffffffffffff1673ffffffffffffffffffffffffffffffffffffffff16815260200190815260200160002060008373ffffffffffffffffffffffffffffffffffffffff1673ffffffffffffffffffffffffffffffffffffffff16815260200190815260200160002054905092915050565b600033905090565b600073ffffffffffffffffffffffffffffffffffffffff168373ffffffffffffffffffffffffffffffffffffffff1603610616576040517f08c379a000000000000000000000000000000000000000000000000000000000815260040161060d90610f25565b60405180910390fd5b600073ffffffffffffffffffffffffffffffffffffffff168273ffffffffffffffffffffffffffffffffffffffff1603610685576040517f08c379a000000000000000000000000000000000000000000000000000000000815260040161067c90610fb7565b60405180910390fd5b80600160008573ffffffffffffffffffffffffffffffffffffffff1673ffffffffffffffffffffffffffffffffffffffff16815260200190815260200160002060008473ffffffffffffffffffffffffffffffffffffffff1673ffffffffffffffffffffffffffffffffffffffff168152602001908152602001600020819055508173ffffffffffffffffffffffffffffffffffffffff168373ffffffffffffffffffffffffffffffffffffffff167f8c5be1e5ebec7d5bd14f71427d1e84f3dd0314c0f7b2291e5b200ac8c7c3b925836040516107639190610c4c565b60405180910390a3505050565b600061077c8484610518565b90507fffffffffffffffffffffffffffffffffffffffffffffffffffffffffffffffff81146107f657818110156107e8576040517f08c379a00000000000000000000000000000000000000000000000000000000081526004016107df90611023565b60405180910390fd5b6107f584848484036105a7565b5b50505050565b600073ffffffffffffffffffffffffffffffffffffffff168373ffffffffffffffffffffffffffffffffffffffff160361086b576040517f08c379a0000000000000000000000000000000000000000000000000000000008152600401610862906110b5565b60405180910390fd5b600073ffffffffffffffffffffffffffffffffffffffff168273ffffffffffffffffffffffffffffffffffffffff16036108da576040517f08c379a00000000000000000000000000000000000000000000000000000000081526004016108d190611147565b60405180910390fd5b6108e5838383610a72565b60008060008573ffffffffffffffffffffffffffffffffffffffff1673ffffffffffffffffffffffffffffffffffffffff1681526020019081526020016000205490508181101561096b576040517f08c379a0000000000000000000000000000000000000000000000000000000008152600401610962906111d9565b60405180910390fd5b8181036000808673ffffffffffffffffffffffffffffffffffffffff1673ffffffffffffffffffffffffffffffffffffffff16815260200190815260200160002081905550816000808573ffffffffffffffffffffffffffffffffffffffff1673ffffffffffffffffffffffffffffffffffffffff168152602001908152602001600020600082825401925050819055508273ffffffffffffffffffffffffffffffffffffffff168473ffffffffffffffffffffffffffffffffffffffff167fddf252ad1be2c89b69c2b068fc378daa952ba7f163c4a11628f55a4df523b3ef84604051610a599190610c4c565b60405180910390a3610a6c848484610a77565b50505050565b505050565b505050565b600081519050919050565b600082825260208201905092915050565b60005b83811015610ab6578082015181840152602081019050610a9b565b60008484015250505050565b6000601f19601f8301169050919050565b6000610ade82610a7c565b610ae88185610a87565b9350610af8818560208601610a98565b610b0181610ac2565b840191505092915050565b60006020820190508181036000830152610b268184610ad3565b905092915050565b600080fd5b600073ffffffffffffffffffffffffffffffffffffffff82169050919050565b6000610b5e82610b33565b9050919050565b610b6e81610b53565b8114610b7957600080fd5b50565b600081359050610b8b81610b65565b92915050565b6000819050919050565b610ba481610b91565b8114610baf57600080fd5b50565b600081359050610bc181610b9b565b92915050565b60008060408385031215610bde57610bdd610b2e565b5b6000610bec85828601610b7c565b9250506020610bfd85828601610bb2565b9150509250929050565b60008115159050919050565b610c1c81610c07565b82525050565b6000602082019050610c376000830184610c13565b92915050565b610c4681610b91565b82525050565b6000602082019050610c616000830184610c3d565b92915050565b600080600060608486031215610c8057610c7f610b2e565b5b6000610c8e86828701610b7c565b9350506020610c9f86828701610b7c565b9250506040610cb086828701610bb2565b9150509250925092565b600060ff82169050919050565b610cd081610cba565b82525050565b6000602082019050610ceb6000830184610cc7565b92915050565b600060208284031215610d0757610d06610b2e565b5b6000610d1584828501610b7c565b91505092915050565b60008060408385031215610d3557610d34610b2e565b5b6000610d4385828601610b7c565b9250506020610d5485828601610b7c565b9150509250929050565b7f4e487b7100000000000000000000000000000000000000000000000000000000600052602260045260246000fd5b60006002820490506001821680610da557607f821691505b602082108103610db857610db7610d5e565b5b50919050565b7f4e487b7100000000000000000000000000000000000000000000000000000000600052601160045260246000fd5b6000610df882610b91565b9150610e0383610b91565b9250828201905080821115610e1b57610e1a610dbe565b5b92915050565b7f45524332303a2064656372656173656420616c6c6f77616e63652062656c6f7760008201527f207a65726f000000000000000000000000000000000000000000000000000000602082015250565b6000610e7d602583610a87565b9150610e8882610e21565b604082019050919050565b60006020820190508181036000830152610eac81610e70565b9050919050565b7f45524332303a20617070726f76652066726f6d20746865207a65726f2061646460008201527f7265737300000000000000000000000000000000000000000000000000000000602082015250565b6000610f0f602483610a87565b9150610f1a82610eb3565b604082019050919050565b60006020820190508181036000830152610f3e81610f02565b9050919050565b7f45524332303a20617070726f766520746f20746865207a65726f20616464726560008201527f7373000000000000000000000000000000000000000000000000000000000000602082015250565b6000610fa1602283610a87565b9150610fac82610f45565b604082019050919050565b60006020820190508181036000830152610fd081610f94565b9050919050565b7f45524332303a20696e73756666696369656e7420616c6c6f77616e6365000000600082015250565b600061100d601d83610a87565b915061101882610fd7565b602082019050919050565b6000602082019050818103600083015261103c81611000565b9050919050565b7f45524332303a207472616e736665722066726f6d20746865207a65726f20616460008201527f6472657373000000000000000000000000000000000000000000000000000000602082015250565b600061109f602583610a87565b91506110aa82611043565b604082019050919050565b600060208201905081810360008301526110ce81611092565b9050919050565b7f45524332303a207472616e7366657220746f20746865207a65726f206164647260008201527f6573730000000000000000000000000000000000000000000000000000000000602082015250565b6000611131602383610a87565b915061113c826110d5565b604082019050919050565b6000602082019050818103600083015261116081611124565b9050919050565b7f45524332303a207472616e7366657220616d6f756e742065786365656473206260008201527f616c616e63650000000000000000000000000000000000000000000000000000602082015250565b60006111c3602683610a87565b91506111ce82611167565b604082019050919050565b600060208201905081810360008301526111f2816111b6565b905091905056fea2646970667358221220d31941bea1026dd571ee4b4293405f64afb672cc8d954dd45abc9e59130478f264736f6c63430008110033",
  "devdoc": {
    "author": "Buki",
    "details": "All function calls are currently implemented without side effects",
    "kind": "dev",
    "methods": {
      "distributeReturns()": {
        "details": "this function distributes the equivalent Share amount in eth to all the shareHolders"
      },
      "getPercentage(uint256)": {
        "details": "this function calculates the percentage donated by the donated  ",
        "returns": {
          "percentageShare": "the percentage of amountNeeded donated by the donater"
        }
      },
      "getRemainderBalance()": {
        "returns": {
          "remainder": ":amount needed for the funded amount to be complete "
        }
      },
      "redeemShares()": {
        "details": "this is a test function, will be removed during production"
      },
      "returnShare(address)": {
        "details": "this function returns the amount of share a shareholder owns in LP token"
      },
      "revertDonations()": {
        "details": "This function returns the donations to there original wallets, if deadline elapses or funding fails"
      },
      "withdraw()": {
        "details": "this function can only be called once, The contract balance must be greater than the amount needed for the call to be successful "
      }
    },
    "stateVariables": {
      "amountNeeded": {
        "details": "do not change the order of the storage or it will break the code"
      }
    },
    "title": "cineCrowd",
    "version": 1
  },
  "userdoc": {
    "kind": "user",
    "methods": {
      "adjustMinAmount(uint256)": {
        "notice": "adjusts the minimum amount incase the remainder balance is less than minAmount"
      },
      "donate()": {
        "notice": "requires that the remainder is not less than minimum account"
      },
      "getPercentage(uint256)": {
        "notice": "To get the figures in its original numbers,  we have to further divide percentageShare it by 1e18 to get the floating equivalent of what we need."
      },
      "revertDonations()": {
        "notice": "we can subtract the gas fees from donater by doing amountDue - tx.gasprice "
      }
    },
    "notice": "To guard against the fluctuations of a crypto assest, this contract will work best with a stable coinThis contract has not been audited ",
    "version": 1
  },
  "storageLayout": {
    "storage": [
      {
        "astId": 778,
        "contract": "contracts/CineCrowd.sol:CineCrowd",
        "label": "amountNeeded",
        "offset": 0,
        "slot": "0",
        "type": "t_uint256"
      },
      {
        "astId": 780,
        "contract": "contracts/CineCrowd.sol:CineCrowd",
        "label": "minAmount",
        "offset": 0,
        "slot": "1",
        "type": "t_uint256"
      },
      {
        "astId": 782,
        "contract": "contracts/CineCrowd.sol:CineCrowd",
        "label": "owner",
        "offset": 0,
        "slot": "2",
        "type": "t_address"
      },
      {
        "astId": 784,
        "contract": "contracts/CineCrowd.sol:CineCrowd",
        "label": "shareAmount",
        "offset": 0,
        "slot": "3",
        "type": "t_uint256"
      },
      {
        "astId": 786,
        "contract": "contracts/CineCrowd.sol:CineCrowd",
        "label": "withdrawn",
        "offset": 0,
        "slot": "4",
        "type": "t_bool"
      },
      {
        "astId": 789,
        "contract": "contracts/CineCrowd.sol:CineCrowd",
        "label": "priceFeed",
        "offset": 1,
        "slot": "4",
        "type": "t_contract(AggregatorV3Interface)45"
      },
      {
        "astId": 792,
        "contract": "contracts/CineCrowd.sol:CineCrowd",
        "label": "liquidityProvider",
        "offset": 0,
        "slot": "5",
        "type": "t_contract(Token)1376"
      },
      {
        "astId": 816,
        "contract": "contracts/CineCrowd.sol:CineCrowd",
        "label": "donaters",
        "offset": 0,
        "slot": "6",
        "type": "t_mapping(t_address,t_uint256)"
      },
      {
        "astId": 819,
        "contract": "contracts/CineCrowd.sol:CineCrowd",
        "label": "shareholders",
        "offset": 0,
        "slot": "7",
        "type": "t_array(t_address)dyn_storage"
      }
    ],
    "types": {
      "t_address": {
        "encoding": "inplace",
        "label": "address",
        "numberOfBytes": "20"
      },
      "t_array(t_address)dyn_storage": {
        "base": "t_address",
        "encoding": "dynamic_array",
        "label": "address[]",
        "numberOfBytes": "32"
      },
      "t_bool": {
        "encoding": "inplace",
        "label": "bool",
        "numberOfBytes": "1"
      },
      "t_contract(AggregatorV3Interface)45": {
        "encoding": "inplace",
        "label": "contract AggregatorV3Interface",
        "numberOfBytes": "20"
      },
      "t_contract(Token)1376": {
        "encoding": "inplace",
        "label": "contract Token",
        "numberOfBytes": "20"
      },
      "t_mapping(t_address,t_uint256)": {
        "encoding": "mapping",
        "key": "t_address",
        "label": "mapping(address => uint256)",
        "numberOfBytes": "32",
        "value": "t_uint256"
      },
      "t_uint256": {
        "encoding": "inplace",
        "label": "uint256",
        "numberOfBytes": "32"
      }
    }
  }
}